{
  "_format": "hh-sol-artifact-1",
  "contractName": "MyNFT",
  "sourceName": "contracts/MyNFT.sol",
  "abi": [
    {
      "inputs": [],
      "stateMutability": "nonpayable",
      "type": "constructor"
    },
    {
      "anonymous": false,
      "inputs": [
        {
          "indexed": true,
          "internalType": "address",
          "name": "owner",
          "type": "address"
        },
        {
          "indexed": true,
          "internalType": "address",
          "name": "approved",
          "type": "address"
        },
        {
          "indexed": true,
          "internalType": "uint256",
          "name": "tokenId",
          "type": "uint256"
        }
      ],
      "name": "Approval",
      "type": "event"
    },
    {
      "anonymous": false,
      "inputs": [
        {
          "indexed": true,
          "internalType": "address",
          "name": "owner",
          "type": "address"
        },
        {
          "indexed": true,
          "internalType": "address",
          "name": "operator",
          "type": "address"
        },
        {
          "indexed": false,
          "internalType": "bool",
          "name": "approved",
          "type": "bool"
        }
      ],
      "name": "ApprovalForAll",
      "type": "event"
    },
    {
      "anonymous": false,
      "inputs": [
        {
          "indexed": true,
          "internalType": "uint256",
          "name": "tokenId",
          "type": "uint256"
        },
        {
          "indexed": true,
          "internalType": "address",
          "name": "seller",
          "type": "address"
        },
        {
          "indexed": true,
          "internalType": "address",
          "name": "buyer",
          "type": "address"
        },
        {
          "indexed": false,
          "internalType": "uint256",
          "name": "price",
          "type": "uint256"
        }
      ],
      "name": "NftBought",
      "type": "event"
    },
    {
      "anonymous": false,
      "inputs": [
        {
          "indexed": true,
          "internalType": "uint256",
          "name": "tokenId",
          "type": "uint256"
        },
        {
          "indexed": true,
          "internalType": "address",
          "name": "buyer",
          "type": "address"
        },
        {
          "indexed": false,
          "internalType": "uint256",
          "name": "price",
          "type": "uint256"
        }
      ],
      "name": "NftListed",
      "type": "event"
    },
    {
      "anonymous": false,
      "inputs": [
        {
          "indexed": true,
          "internalType": "uint256",
          "name": "tokenId",
          "type": "uint256"
        },
        {
          "indexed": true,
          "internalType": "address",
          "name": "caller",
          "type": "address"
        }
      ],
      "name": "NftListingCancelled",
      "type": "event"
    },
    {
      "anonymous": false,
      "inputs": [
        {
          "indexed": true,
          "internalType": "uint256",
          "name": "tokenId",
          "type": "uint256"
        },
        {
          "indexed": true,
          "internalType": "address",
          "name": "caller",
          "type": "address"
        },
        {
          "indexed": false,
          "internalType": "uint256",
          "name": "newPrice",
          "type": "uint256"
        }
      ],
      "name": "NftListingUpdated",
      "type": "event"
    },
    {
      "anonymous": false,
      "inputs": [
        {
          "indexed": true,
          "internalType": "address",
          "name": "previousOwner",
          "type": "address"
        },
        {
          "indexed": true,
          "internalType": "address",
          "name": "newOwner",
          "type": "address"
        }
      ],
      "name": "OwnershipTransferred",
      "type": "event"
    },
    {
      "anonymous": false,
      "inputs": [
        {
          "indexed": true,
          "internalType": "address",
          "name": "from",
          "type": "address"
        },
        {
          "indexed": true,
          "internalType": "address",
          "name": "to",
          "type": "address"
        },
        {
          "indexed": true,
          "internalType": "uint256",
          "name": "tokenId",
          "type": "uint256"
        }
      ],
      "name": "Transfer",
      "type": "event"
    },
    {
      "inputs": [
        {
          "internalType": "address",
          "name": "to",
          "type": "address"
        },
        {
          "internalType": "uint256",
          "name": "tokenId",
          "type": "uint256"
        }
      ],
      "name": "approve",
      "outputs": [],
      "stateMutability": "nonpayable",
      "type": "function"
    },
    {
      "inputs": [
        {
          "internalType": "address",
          "name": "owner",
          "type": "address"
        }
      ],
      "name": "balanceOf",
      "outputs": [
        {
          "internalType": "uint256",
          "name": "",
          "type": "uint256"
        }
      ],
      "stateMutability": "view",
      "type": "function"
    },
    {
      "inputs": [
        {
          "internalType": "uint256",
          "name": "tokenId",
          "type": "uint256"
        }
      ],
      "name": "buyNft",
      "outputs": [],
      "stateMutability": "payable",
      "type": "function"
    },
    {
      "inputs": [
        {
          "internalType": "uint256",
          "name": "tokenId",
          "type": "uint256"
        }
      ],
      "name": "cancelListing",
      "outputs": [],
      "stateMutability": "nonpayable",
      "type": "function"
    },
    {
      "inputs": [
        {
          "internalType": "address",
          "name": "to",
          "type": "address"
        },
        {
          "internalType": "string",
          "name": "uri",
          "type": "string"
        }
      ],
      "name": "createNft",
      "outputs": [],
      "stateMutability": "nonpayable",
      "type": "function"
    },
    {
      "inputs": [
        {
          "internalType": "uint256",
          "name": "tokenId",
          "type": "uint256"
        }
      ],
      "name": "getActiveItem",
      "outputs": [
        {
          "components": [
            {
              "internalType": "address",
              "name": "seller",
              "type": "address"
            },
            {
              "internalType": "uint256",
              "name": "price",
              "type": "uint256"
            },
            {
              "internalType": "string",
              "name": "url",
              "type": "string"
            }
          ],
          "internalType": "struct MyNFT.ListedNFT",
          "name": "",
          "type": "tuple"
        }
      ],
      "stateMutability": "view",
      "type": "function"
    },
    {
      "inputs": [
        {
          "internalType": "uint256",
          "name": "tokenId",
          "type": "uint256"
        }
      ],
      "name": "getApproved",
      "outputs": [
        {
          "internalType": "address",
          "name": "",
          "type": "address"
        }
      ],
      "stateMutability": "view",
      "type": "function"
    },
    {
      "inputs": [
        {
          "internalType": "address",
          "name": "owner",
          "type": "address"
        },
        {
          "internalType": "address",
          "name": "operator",
          "type": "address"
        }
      ],
      "name": "isApprovedForAll",
      "outputs": [
        {
          "internalType": "bool",
          "name": "",
          "type": "bool"
        }
      ],
      "stateMutability": "view",
      "type": "function"
    },
    {
      "inputs": [
        {
          "internalType": "uint256",
          "name": "tokenId",
          "type": "uint256"
        },
        {
          "internalType": "uint256",
          "name": "price",
          "type": "uint256"
        }
      ],
      "name": "listNft",
      "outputs": [],
      "stateMutability": "nonpayable",
      "type": "function"
    },
    {
      "inputs": [],
      "name": "name",
      "outputs": [
        {
          "internalType": "string",
          "name": "",
          "type": "string"
        }
      ],
      "stateMutability": "view",
      "type": "function"
    },
    {
      "inputs": [],
      "name": "owner",
      "outputs": [
        {
          "internalType": "address",
          "name": "",
          "type": "address"
        }
      ],
      "stateMutability": "view",
      "type": "function"
    },
    {
      "inputs": [
        {
          "internalType": "uint256",
          "name": "tokenId",
          "type": "uint256"
        }
      ],
      "name": "ownerOf",
      "outputs": [
        {
          "internalType": "address",
          "name": "",
          "type": "address"
        }
      ],
      "stateMutability": "view",
      "type": "function"
    },
    {
      "inputs": [],
      "name": "renounceOwnership",
      "outputs": [],
      "stateMutability": "nonpayable",
      "type": "function"
    },
    {
      "inputs": [
        {
          "internalType": "address",
          "name": "from",
          "type": "address"
        },
        {
          "internalType": "address",
          "name": "to",
          "type": "address"
        },
        {
          "internalType": "uint256",
          "name": "tokenId",
          "type": "uint256"
        }
      ],
      "name": "safeTransferFrom",
      "outputs": [],
      "stateMutability": "nonpayable",
      "type": "function"
    },
    {
      "inputs": [
        {
          "internalType": "address",
          "name": "from",
          "type": "address"
        },
        {
          "internalType": "address",
          "name": "to",
          "type": "address"
        },
        {
          "internalType": "uint256",
          "name": "tokenId",
          "type": "uint256"
        },
        {
          "internalType": "bytes",
          "name": "data",
          "type": "bytes"
        }
      ],
      "name": "safeTransferFrom",
      "outputs": [],
      "stateMutability": "nonpayable",
      "type": "function"
    },
    {
      "inputs": [
        {
          "internalType": "address",
          "name": "operator",
          "type": "address"
        },
        {
          "internalType": "bool",
          "name": "approved",
          "type": "bool"
        }
      ],
      "name": "setApprovalForAll",
      "outputs": [],
      "stateMutability": "nonpayable",
      "type": "function"
    },
    {
      "inputs": [
        {
          "internalType": "bytes4",
          "name": "interfaceId",
          "type": "bytes4"
        }
      ],
      "name": "supportsInterface",
      "outputs": [
        {
          "internalType": "bool",
          "name": "",
          "type": "bool"
        }
      ],
      "stateMutability": "view",
      "type": "function"
    },
    {
      "inputs": [],
      "name": "symbol",
      "outputs": [
        {
          "internalType": "string",
          "name": "",
          "type": "string"
        }
      ],
      "stateMutability": "view",
      "type": "function"
    },
    {
      "inputs": [
        {
          "internalType": "uint256",
          "name": "index",
          "type": "uint256"
        }
      ],
      "name": "tokenByIndex",
      "outputs": [
        {
          "internalType": "uint256",
          "name": "",
          "type": "uint256"
        }
      ],
      "stateMutability": "view",
      "type": "function"
    },
    {
      "inputs": [
        {
          "internalType": "address",
          "name": "owner",
          "type": "address"
        },
        {
          "internalType": "uint256",
          "name": "index",
          "type": "uint256"
        }
      ],
      "name": "tokenOfOwnerByIndex",
      "outputs": [
        {
          "internalType": "uint256",
          "name": "",
          "type": "uint256"
        }
      ],
      "stateMutability": "view",
      "type": "function"
    },
    {
      "inputs": [
        {
          "internalType": "uint256",
          "name": "tokenId",
          "type": "uint256"
        }
      ],
      "name": "tokenURI",
      "outputs": [
        {
          "internalType": "string",
          "name": "",
          "type": "string"
        }
      ],
      "stateMutability": "view",
      "type": "function"
    },
    {
      "inputs": [],
      "name": "totalSupply",
      "outputs": [
        {
          "internalType": "uint256",
          "name": "",
          "type": "uint256"
        }
      ],
      "stateMutability": "view",
      "type": "function"
    },
    {
      "inputs": [
        {
          "internalType": "address",
          "name": "from",
          "type": "address"
        },
        {
          "internalType": "address",
          "name": "to",
          "type": "address"
        },
        {
          "internalType": "uint256",
          "name": "tokenId",
          "type": "uint256"
        }
      ],
      "name": "transferFrom",
      "outputs": [],
      "stateMutability": "nonpayable",
      "type": "function"
    },
    {
      "inputs": [
        {
          "internalType": "address",
          "name": "newOwner",
          "type": "address"
        }
      ],
      "name": "transferOwnership",
      "outputs": [],
      "stateMutability": "nonpayable",
      "type": "function"
    },
    {
      "inputs": [
        {
          "internalType": "uint256",
          "name": "tokenId",
          "type": "uint256"
        },
        {
          "internalType": "uint256",
          "name": "newPrice",
          "type": "uint256"
        }
      ],
      "name": "updateListing",
      "outputs": [],
      "stateMutability": "nonpayable",
      "type": "function"
    }
  ],
  "bytecode": "0x60806040523480156200001157600080fd5b506040518060400160405280600581526020017f4d794e46540000000000000000000000000000000000000000000000000000008152506040518060400160405280600481526020017f4d4e465400000000000000000000000000000000000000000000000000000000815250816000908051906020019062000096929190620001a6565b508060019080519060200190620000af929190620001a6565b505050620000d2620000c6620000d860201b60201c565b620000e060201b60201c565b620002bb565b600033905090565b6000600b60009054906101000a900473ffffffffffffffffffffffffffffffffffffffff16905081600b60006101000a81548173ffffffffffffffffffffffffffffffffffffffff021916908373ffffffffffffffffffffffffffffffffffffffff1602179055508173ffffffffffffffffffffffffffffffffffffffff168173ffffffffffffffffffffffffffffffffffffffff167f8be0079c531659141344cd1fd0a4f28419497f9722a3daafe3b4186f6b6457e060405160405180910390a35050565b828054620001b49062000256565b90600052602060002090601f016020900481019282620001d8576000855562000224565b82601f10620001f357805160ff191683800117855562000224565b8280016001018555821562000224579182015b828111156200022357825182559160200191906001019062000206565b5b50905062000233919062000237565b5090565b5b808211156200025257600081600090555060010162000238565b5090565b600060028204905060018216806200026f57607f821691505b602082108114156200028657620002856200028c565b5b50919050565b7f4e487b7100000000000000000000000000000000000000000000000000000000600052602260045260246000fd5b6149b380620002cb6000396000f3fe6080604052600436106101665760003560e01c80635ee68aa7116100d1578063a22cb4651161008a578063c87b56dd11610064578063c87b56dd1461053d578063e985e9c51461057a578063f2fde38b146105b7578063fe8723e1146105e057610166565b8063a22cb465146104c2578063b4ef6d48146104eb578063b88d4fde1461051457610166565b80635ee68aa71461039e5780636352211e146103db57806370a0823114610418578063715018a6146104555780638da5cb5b1461046c57806395d89b411461049757610166565b806323b872dd1161012357806323b872dd1461028d578063243adbdd146102b65780632f745c59146102d2578063305a67a81461030f57806342842e0e146103385780634f6ccce71461036157610166565b80630179ea881461016b57806301ffc9a71461019457806306fdde03146101d1578063081812fc146101fc578063095ea7b31461023957806318160ddd14610262575b600080fd5b34801561017757600080fd5b50610192600480360381019061018d91906135d0565b610609565b005b3480156101a057600080fd5b506101bb60048036038101906101b69190613555565b6107a5565b6040516101c89190613c1a565b60405180910390f35b3480156101dd57600080fd5b506101e66107b7565b6040516101f39190613c35565b60405180910390f35b34801561020857600080fd5b50610223600480360381019061021e91906135a7565b610849565b6040516102309190613bb3565b60405180910390f35b34801561024557600080fd5b50610260600480360381019061025b9190613519565b61088f565b005b34801561026e57600080fd5b506102776109a7565b6040516102849190613ff9565b60405180910390f35b34801561029957600080fd5b506102b460048036038101906102af91906133bb565b6109b4565b005b6102d060048036038101906102cb91906135a7565b610a1d565b005b3480156102de57600080fd5b506102f960048036038101906102f49190613519565b610d09565b6040516103069190613ff9565b60405180910390f35b34801561031b57600080fd5b50610336600480360381019061033191906135a7565b610dae565b005b34801561034457600080fd5b5061035f600480360381019061035a91906133bb565b610f1f565b005b34801561036d57600080fd5b50610388600480360381019061038391906135a7565b610f3f565b6040516103959190613ff9565b60405180910390f35b3480156103aa57600080fd5b506103c560048036038101906103c091906135a7565b610fd6565b6040516103d29190613fd7565b60405180910390f35b3480156103e757600080fd5b5061040260048036038101906103fd91906135a7565b6110f5565b60405161040f9190613bb3565b60405180910390f35b34801561042457600080fd5b5061043f600480360381019061043a9190613356565b61117c565b60405161044c9190613ff9565b60405180910390f35b34801561046157600080fd5b5061046a611234565b005b34801561047857600080fd5b50610481611248565b60405161048e9190613bb3565b60405180910390f35b3480156104a357600080fd5b506104ac611272565b6040516104b99190613c35565b60405180910390f35b3480156104ce57600080fd5b506104e960048036038101906104e49190613485565b611304565b005b3480156104f757600080fd5b50610512600480360381019061050d91906134c1565b61131a565b005b34801561052057600080fd5b5061053b6004803603810190610536919061340a565b611446565b005b34801561054957600080fd5b50610564600480360381019061055f91906135a7565b6114b1565b6040516105719190613c35565b60405180910390f35b34801561058657600080fd5b506105a1600480360381019061059c919061337f565b6114c3565b6040516105ae9190613c1a565b60405180910390f35b3480156105c357600080fd5b506105de60048036038101906105d99190613356565b611557565b005b3480156105ec57600080fd5b50610607600480360381019061060291906135d0565b6115db565b005b816000600c60008381526020019081526020016000206001015411610663576040517f08c379a000000000000000000000000000000000000000000000000000000000815260040161065a90613d97565b60405180910390fd5b823361066e826110f5565b73ffffffffffffffffffffffffffffffffffffffff168173ffffffffffffffffffffffffffffffffffffffff16146106db576040517f08c379a00000000000000000000000000000000000000000000000000000000081526004016106d290613df7565b60405180910390fd5b6000841161071e576040517f08c379a000000000000000000000000000000000000000000000000000000000815260040161071590613e17565b60405180910390fd5b83600c6000878152602001908152602001600020600101819055503373ffffffffffffffffffffffffffffffffffffffff16600c6000878152602001908152602001600020600101547f8716e33ec68567f2083ce44f2a8290a0b578dd7d2393af4581975cc60c6df92d866040516107969190613ff9565b60405180910390a35050505050565b60006107b082611809565b9050919050565b6060600080546107c6906141b3565b80601f01602080910402602001604051908101604052809291908181526020018280546107f2906141b3565b801561083f5780601f106108145761010080835404028352916020019161083f565b820191906000526020600020905b81548152906001019060200180831161082257829003601f168201915b5050505050905090565b600061085482611883565b6004600083815260200190815260200160002060009054906101000a900473ffffffffffffffffffffffffffffffffffffffff169050919050565b600061089a826110f5565b90508073ffffffffffffffffffffffffffffffffffffffff168373ffffffffffffffffffffffffffffffffffffffff16141561090b576040517f08c379a000000000000000000000000000000000000000000000000000000000815260040161090290613f17565b60405180910390fd5b8073ffffffffffffffffffffffffffffffffffffffff1661092a6118ce565b73ffffffffffffffffffffffffffffffffffffffff1614806109595750610958816109536118ce565b6114c3565b5b610998576040517f08c379a000000000000000000000000000000000000000000000000000000000815260040161098f90613f37565b60405180910390fd5b6109a283836118d6565b505050565b6000600880549050905090565b6000600c60008381526020019081526020016000206001015414610a0d576040517f08c379a0000000000000000000000000000000000000000000000000000000008152600401610a0490613c57565b60405180910390fd5b610a1883838361198f565b505050565b806000600c60008381526020019081526020016000206001015411610a77576040517f08c379a0000000000000000000000000000000000000000000000000000000008152600401610a6e90613d97565b60405180910390fd5b6000600c600084815260200190815260200160002090508060000160009054906101000a900473ffffffffffffffffffffffffffffffffffffffff1673ffffffffffffffffffffffffffffffffffffffff163373ffffffffffffffffffffffffffffffffffffffff161415610b21576040517f08c379a0000000000000000000000000000000000000000000000000000000008152600401610b1890613d37565b60405180910390fd5b80600101543414610b67576040517f08c379a0000000000000000000000000000000000000000000000000000000008152600401610b5e90613c77565b60405180910390fd5b60008160000160009054906101000a900473ffffffffffffffffffffffffffffffffffffffff169050600c6000858152602001908152602001600020600080820160006101000a81549073ffffffffffffffffffffffffffffffffffffffff02191690556001820160009055600282016000610be39190613121565b5050610bf08133866119ef565b60008173ffffffffffffffffffffffffffffffffffffffff1634604051610c1690613b9e565b60006040518083038185875af1925050503d8060008114610c53576040519150601f19603f3d011682016040523d82523d6000602084013e610c58565b606091505b5050905080610c9c576040517f08c379a0000000000000000000000000000000000000000000000000000000008152600401610c9390613e97565b60405180910390fd5b3373ffffffffffffffffffffffffffffffffffffffff168273ffffffffffffffffffffffffffffffffffffffff16867f5837dc3eeed2d2b1d75de7e85c87404936759686b473d2cbc06bc59f96060cff34604051610cfa9190613ff9565b60405180910390a45050505050565b6000610d148361117c565b8210610d55576040517f08c379a0000000000000000000000000000000000000000000000000000000008152600401610d4c90613cb7565b60405180910390fd5b600660008473ffffffffffffffffffffffffffffffffffffffff1673ffffffffffffffffffffffffffffffffffffffff168152602001908152602001600020600083815260200190815260200160002054905092915050565b806000600c60008381526020019081526020016000206001015411610e08576040517f08c379a0000000000000000000000000000000000000000000000000000000008152600401610dff90613d97565b60405180910390fd5b8133610e13826110f5565b73ffffffffffffffffffffffffffffffffffffffff168173ffffffffffffffffffffffffffffffffffffffff1614610e80576040517f08c379a0000000000000000000000000000000000000000000000000000000008152600401610e7790613df7565b60405180910390fd5b600c6000858152602001908152602001600020600080820160006101000a81549073ffffffffffffffffffffffffffffffffffffffff02191690556001820160009055600282016000610ed39190613121565b50503373ffffffffffffffffffffffffffffffffffffffff16847fd742220d59c96fcc1011fb762c3fbef62dba60755d629cf48b9d927c3823461260405160405180910390a350505050565b610f3a83838360405180602001604052806000815250611446565b505050565b6000610f496109a7565b8210610f8a576040517f08c379a0000000000000000000000000000000000000000000000000000000008152600401610f8190613f57565b60405180910390fd5b60088281548110610fc4577f4e487b7100000000000000000000000000000000000000000000000000000000600052603260045260246000fd5b90600052602060002001549050919050565b610fde613161565b600c60008381526020019081526020016000206040518060600160405290816000820160009054906101000a900473ffffffffffffffffffffffffffffffffffffffff1673ffffffffffffffffffffffffffffffffffffffff1673ffffffffffffffffffffffffffffffffffffffff1681526020016001820154815260200160028201805461106c906141b3565b80601f0160208091040260200160405190810160405280929190818152602001828054611098906141b3565b80156110e55780601f106110ba576101008083540402835291602001916110e5565b820191906000526020600020905b8154815290600101906020018083116110c857829003601f168201915b5050505050815250509050919050565b60008061110183611ce9565b9050600073ffffffffffffffffffffffffffffffffffffffff168173ffffffffffffffffffffffffffffffffffffffff161415611173576040517f08c379a000000000000000000000000000000000000000000000000000000000815260040161116a90613ef7565b60405180910390fd5b80915050919050565b60008073ffffffffffffffffffffffffffffffffffffffff168273ffffffffffffffffffffffffffffffffffffffff1614156111ed576040517f08c379a00000000000000000000000000000000000000000000000000000000081526004016111e490613e37565b60405180910390fd5b600360008373ffffffffffffffffffffffffffffffffffffffff1673ffffffffffffffffffffffffffffffffffffffff168152602001908152602001600020549050919050565b61123c611d26565b6112466000611da4565b565b6000600b60009054906101000a900473ffffffffffffffffffffffffffffffffffffffff16905090565b606060018054611281906141b3565b80601f01602080910402602001604051908101604052809291908181526020018280546112ad906141b3565b80156112fa5780601f106112cf576101008083540402835291602001916112fa565b820191906000526020600020905b8154815290600101906020018083116112dd57829003601f168201915b5050505050905090565b61131661130f6118ce565b8383611e6a565b5050565b600073ffffffffffffffffffffffffffffffffffffffff168373ffffffffffffffffffffffffffffffffffffffff16141561138a576040517f08c379a000000000000000000000000000000000000000000000000000000000815260040161138190613d77565b60405180910390fd5b600082829050116113d0576040517f08c379a00000000000000000000000000000000000000000000000000000000081526004016113c790613e77565b60405180910390fd5b60006113dc600d611fd7565b90506113e8600d611fe5565b6113f28482611ffb565b6114408184848080601f016020809104026020016040519081016040528093929190818152602001838380828437600081840152601f19601f82011690508083019250505050505050612019565b50505050565b6000600c6000848152602001908152602001600020600101541461149f576040517f08c379a000000000000000000000000000000000000000000000000000000000815260040161149690613c57565b60405180910390fd5b6114ab8484848461208d565b50505050565b60606114bc826120e9565b9050919050565b6000600560008473ffffffffffffffffffffffffffffffffffffffff1673ffffffffffffffffffffffffffffffffffffffff16815260200190815260200160002060008373ffffffffffffffffffffffffffffffffffffffff1673ffffffffffffffffffffffffffffffffffffffff16815260200190815260200160002060009054906101000a900460ff16905092915050565b61155f611d26565b600073ffffffffffffffffffffffffffffffffffffffff168173ffffffffffffffffffffffffffffffffffffffff1614156115cf576040517f08c379a00000000000000000000000000000000000000000000000000000000081526004016115c690613cf7565b60405180910390fd5b6115d881611da4565b50565b816000600c60008381526020019081526020016000206001015414611635576040517f08c379a000000000000000000000000000000000000000000000000000000000815260040161162c90613fb7565b60405180910390fd5b8233611640826110f5565b73ffffffffffffffffffffffffffffffffffffffff168173ffffffffffffffffffffffffffffffffffffffff16146116ad576040517f08c379a00000000000000000000000000000000000000000000000000000000081526004016116a490613df7565b60405180910390fd5b600084116116f0576040517f08c379a00000000000000000000000000000000000000000000000000000000081526004016116e790613f97565b60405180910390fd5b60006116fb866114b1565b905060405180606001604052803373ffffffffffffffffffffffffffffffffffffffff16815260200186815260200182815250600c600088815260200190815260200160002060008201518160000160006101000a81548173ffffffffffffffffffffffffffffffffffffffff021916908373ffffffffffffffffffffffffffffffffffffffff1602179055506020820151816001015560408201518160020190805190602001906117ae929190613198565b509050503373ffffffffffffffffffffffffffffffffffffffff16867f6decc0edd62bc66dd462d841e96d5888ee2452307a8352b9bd66e442d6a23ee0876040516117f99190613ff9565b60405180910390a3505050505050565b60007f780e9d63000000000000000000000000000000000000000000000000000000007bffffffffffffffffffffffffffffffffffffffffffffffffffffffff1916827bffffffffffffffffffffffffffffffffffffffffffffffffffffffff1916148061187c575061187b826121fc565b5b9050919050565b61188c816122de565b6118cb576040517f08c379a00000000000000000000000000000000000000000000000000000000081526004016118c290613ef7565b60405180910390fd5b50565b600033905090565b816004600083815260200190815260200160002060006101000a81548173ffffffffffffffffffffffffffffffffffffffff021916908373ffffffffffffffffffffffffffffffffffffffff160217905550808273ffffffffffffffffffffffffffffffffffffffff16611949836110f5565b73ffffffffffffffffffffffffffffffffffffffff167f8c5be1e5ebec7d5bd14f71427d1e84f3dd0314c0f7b2291e5b200ac8c7c3b92560405160405180910390a45050565b6119a061199a6118ce565b8261231f565b6119df576040517f08c379a00000000000000000000000000000000000000000000000000000000081526004016119d690613c97565b60405180910390fd5b6119ea8383836119ef565b505050565b8273ffffffffffffffffffffffffffffffffffffffff16611a0f826110f5565b73ffffffffffffffffffffffffffffffffffffffff1614611a65576040517f08c379a0000000000000000000000000000000000000000000000000000000008152600401611a5c90613d17565b60405180910390fd5b600073ffffffffffffffffffffffffffffffffffffffff168273ffffffffffffffffffffffffffffffffffffffff161415611ad5576040517f08c379a0000000000000000000000000000000000000000000000000000000008152600401611acc90613db7565b60405180910390fd5b611ae283838360016123b4565b8273ffffffffffffffffffffffffffffffffffffffff16611b02826110f5565b73ffffffffffffffffffffffffffffffffffffffff1614611b58576040517f08c379a0000000000000000000000000000000000000000000000000000000008152600401611b4f90613d17565b60405180910390fd5b6004600082815260200190815260200160002060006101000a81549073ffffffffffffffffffffffffffffffffffffffff02191690556001600360008573ffffffffffffffffffffffffffffffffffffffff1673ffffffffffffffffffffffffffffffffffffffff168152602001908152602001600020600082825403925050819055506001600360008473ffffffffffffffffffffffffffffffffffffffff1673ffffffffffffffffffffffffffffffffffffffff16815260200190815260200160002060008282540192505081905550816002600083815260200190815260200160002060006101000a81548173ffffffffffffffffffffffffffffffffffffffff021916908373ffffffffffffffffffffffffffffffffffffffff160217905550808273ffffffffffffffffffffffffffffffffffffffff168473ffffffffffffffffffffffffffffffffffffffff167fddf252ad1be2c89b69c2b068fc378daa952ba7f163c4a11628f55a4df523b3ef60405160405180910390a4611ce483838360016123c6565b505050565b60006002600083815260200190815260200160002060009054906101000a900473ffffffffffffffffffffffffffffffffffffffff169050919050565b611d2e6118ce565b73ffffffffffffffffffffffffffffffffffffffff16611d4c611248565b73ffffffffffffffffffffffffffffffffffffffff1614611da2576040517f08c379a0000000000000000000000000000000000000000000000000000000008152600401611d9990613ed7565b60405180910390fd5b565b6000600b60009054906101000a900473ffffffffffffffffffffffffffffffffffffffff16905081600b60006101000a81548173ffffffffffffffffffffffffffffffffffffffff021916908373ffffffffffffffffffffffffffffffffffffffff1602179055508173ffffffffffffffffffffffffffffffffffffffff168173ffffffffffffffffffffffffffffffffffffffff167f8be0079c531659141344cd1fd0a4f28419497f9722a3daafe3b4186f6b6457e060405160405180910390a35050565b8173ffffffffffffffffffffffffffffffffffffffff168373ffffffffffffffffffffffffffffffffffffffff161415611ed9576040517f08c379a0000000000000000000000000000000000000000000000000000000008152600401611ed090613dd7565b60405180910390fd5b80600560008573ffffffffffffffffffffffffffffffffffffffff1673ffffffffffffffffffffffffffffffffffffffff16815260200190815260200160002060008473ffffffffffffffffffffffffffffffffffffffff1673ffffffffffffffffffffffffffffffffffffffff16815260200190815260200160002060006101000a81548160ff0219169083151502179055508173ffffffffffffffffffffffffffffffffffffffff168373ffffffffffffffffffffffffffffffffffffffff167f17307eab39ab6107e8899845ad3d59bd9653f200f220920489ca2b5937696c3183604051611fca9190613c1a565b60405180910390a3505050565b600081600001549050919050565b6001816000016000828254019250508190555050565b6120158282604051806020016040528060008152506123cc565b5050565b612022826122de565b612061576040517f08c379a000000000000000000000000000000000000000000000000000000000815260040161205890613e57565b60405180910390fd5b80600a60008481526020019081526020016000209080519060200190612088929190613198565b505050565b6120988484846119ef565b6120a484848484612427565b6120e3576040517f08c379a00000000000000000000000000000000000000000000000000000000081526004016120da90613cd7565b60405180910390fd5b50505050565b60606120f482611883565b6000600a60008481526020019081526020016000208054612114906141b3565b80601f0160208091040260200160405190810160405280929190818152602001828054612140906141b3565b801561218d5780601f106121625761010080835404028352916020019161218d565b820191906000526020600020905b81548152906001019060200180831161217057829003601f168201915b50505050509050600061219e6125be565b90506000815114156121b45781925050506121f7565b6000825111156121e95780826040516020016121d1929190613b7a565b604051602081830303815290604052925050506121f7565b6121f2846125d5565b925050505b919050565b60007f80ac58cd000000000000000000000000000000000000000000000000000000007bffffffffffffffffffffffffffffffffffffffffffffffffffffffff1916827bffffffffffffffffffffffffffffffffffffffffffffffffffffffff191614806122c757507f5b5e139f000000000000000000000000000000000000000000000000000000007bffffffffffffffffffffffffffffffffffffffffffffffffffffffff1916827bffffffffffffffffffffffffffffffffffffffffffffffffffffffff1916145b806122d757506122d68261263d565b5b9050919050565b60008073ffffffffffffffffffffffffffffffffffffffff1661230083611ce9565b73ffffffffffffffffffffffffffffffffffffffff1614159050919050565b60008061232b836110f5565b90508073ffffffffffffffffffffffffffffffffffffffff168473ffffffffffffffffffffffffffffffffffffffff16148061236d575061236c81856114c3565b5b806123ab57508373ffffffffffffffffffffffffffffffffffffffff1661239384610849565b73ffffffffffffffffffffffffffffffffffffffff16145b91505092915050565b6123c0848484846126a7565b50505050565b50505050565b6123d68383612807565b6123e36000848484612427565b612422576040517f08c379a000000000000000000000000000000000000000000000000000000000815260040161241990613cd7565b60405180910390fd5b505050565b60006124488473ffffffffffffffffffffffffffffffffffffffff16612a25565b156125b1578373ffffffffffffffffffffffffffffffffffffffff1663150b7a026124716118ce565b8786866040518563ffffffff1660e01b81526004016124939493929190613bce565b602060405180830381600087803b1580156124ad57600080fd5b505af19250505080156124de57506040513d601f19601f820116820180604052508101906124db919061357e565b60015b612561573d806000811461250e576040519150601f19603f3d011682016040523d82523d6000602084013e612513565b606091505b50600081511415612559576040517f08c379a000000000000000000000000000000000000000000000000000000000815260040161255090613cd7565b60405180910390fd5b805181602001fd5b63150b7a0260e01b7bffffffffffffffffffffffffffffffffffffffffffffffffffffffff1916817bffffffffffffffffffffffffffffffffffffffffffffffffffffffff1916149150506125b6565b600190505b949350505050565b606060405180602001604052806000815250905090565b60606125e082611883565b60006125ea6125be565b9050600081511161260a5760405180602001604052806000815250612635565b8061261484612a48565b604051602001612625929190613b7a565b6040516020818303038152906040525b915050919050565b60007f01ffc9a7000000000000000000000000000000000000000000000000000000007bffffffffffffffffffffffffffffffffffffffffffffffffffffffff1916827bffffffffffffffffffffffffffffffffffffffffffffffffffffffff1916149050919050565b6126b384848484612b6c565b60018111156126f7576040517f08c379a00000000000000000000000000000000000000000000000000000000081526004016126ee90613f77565b60405180910390fd5b6000829050600073ffffffffffffffffffffffffffffffffffffffff168573ffffffffffffffffffffffffffffffffffffffff16141561273f5761273a81612b72565b61277e565b8373ffffffffffffffffffffffffffffffffffffffff168573ffffffffffffffffffffffffffffffffffffffff161461277d5761277c8582612bbb565b5b5b600073ffffffffffffffffffffffffffffffffffffffff168473ffffffffffffffffffffffffffffffffffffffff1614156127c1576127bc81612d28565b612800565b8473ffffffffffffffffffffffffffffffffffffffff168473ffffffffffffffffffffffffffffffffffffffff16146127ff576127fe8482612e6b565b5b5b5050505050565b600073ffffffffffffffffffffffffffffffffffffffff168273ffffffffffffffffffffffffffffffffffffffff161415612877576040517f08c379a000000000000000000000000000000000000000000000000000000000815260040161286e90613eb7565b60405180910390fd5b612880816122de565b156128c0576040517f08c379a00000000000000000000000000000000000000000000000000000000081526004016128b790613d57565b60405180910390fd5b6128ce6000838360016123b4565b6128d7816122de565b15612917576040517f08c379a000000000000000000000000000000000000000000000000000000000815260040161290e90613d57565b60405180910390fd5b6001600360008473ffffffffffffffffffffffffffffffffffffffff1673ffffffffffffffffffffffffffffffffffffffff16815260200190815260200160002060008282540192505081905550816002600083815260200190815260200160002060006101000a81548173ffffffffffffffffffffffffffffffffffffffff021916908373ffffffffffffffffffffffffffffffffffffffff160217905550808273ffffffffffffffffffffffffffffffffffffffff16600073ffffffffffffffffffffffffffffffffffffffff167fddf252ad1be2c89b69c2b068fc378daa952ba7f163c4a11628f55a4df523b3ef60405160405180910390a4612a216000838360016123c6565b5050565b6000808273ffffffffffffffffffffffffffffffffffffffff163b119050919050565b606060006001612a5784612eea565b01905060008167ffffffffffffffff811115612a9c577f4e487b7100000000000000000000000000000000000000000000000000000000600052604160045260246000fd5b6040519080825280601f01601f191660200182016040528015612ace5781602001600182028036833780820191505090505b509050600082602001820190505b600115612b61578080600190039150507f3031323334353637383961626364656600000000000000000000000000000000600a86061a8153600a8581612b4b577f4e487b7100000000000000000000000000000000000000000000000000000000600052601260045260246000fd5b0494506000851415612b5c57612b61565b612adc565b819350505050919050565b50505050565b6008805490506009600083815260200190815260200160002081905550600881908060018154018082558091505060019003906000526020600020016000909190919091505550565b60006001612bc88461117c565b612bd291906140c9565b9050600060076000848152602001908152602001600020549050818114612cb7576000600660008673ffffffffffffffffffffffffffffffffffffffff1673ffffffffffffffffffffffffffffffffffffffff168152602001908152602001600020600084815260200190815260200160002054905080600660008773ffffffffffffffffffffffffffffffffffffffff1673ffffffffffffffffffffffffffffffffffffffff168152602001908152602001600020600084815260200190815260200160002081905550816007600083815260200190815260200160002081905550505b6007600084815260200190815260200160002060009055600660008573ffffffffffffffffffffffffffffffffffffffff1673ffffffffffffffffffffffffffffffffffffffff16815260200190815260200160002060008381526020019081526020016000206000905550505050565b60006001600880549050612d3c91906140c9565b9050600060096000848152602001908152602001600020549050600060088381548110612d92577f4e487b7100000000000000000000000000000000000000000000000000000000600052603260045260246000fd5b906000526020600020015490508060088381548110612dda577f4e487b7100000000000000000000000000000000000000000000000000000000600052603260045260246000fd5b906000526020600020018190555081600960008381526020019081526020016000208190555060096000858152602001908152602001600020600090556008805480612e4f577f4e487b7100000000000000000000000000000000000000000000000000000000600052603160045260246000fd5b6001900381819060005260206000200160009055905550505050565b6000612e768361117c565b905081600660008573ffffffffffffffffffffffffffffffffffffffff1673ffffffffffffffffffffffffffffffffffffffff168152602001908152602001600020600083815260200190815260200160002081905550806007600084815260200190815260200160002081905550505050565b600080600090507a184f03e93ff9f4daa797ed6e38ed64bf6a1f0100000000000000008310612f6e577a184f03e93ff9f4daa797ed6e38ed64bf6a1f0100000000000000008381612f64577f4e487b7100000000000000000000000000000000000000000000000000000000600052601260045260246000fd5b0492506040810190505b6d04ee2d6d415b85acef81000000008310612fd1576d04ee2d6d415b85acef81000000008381612fc7577f4e487b7100000000000000000000000000000000000000000000000000000000600052601260045260246000fd5b0492506020810190505b662386f26fc10000831061302657662386f26fc10000838161301c577f4e487b7100000000000000000000000000000000000000000000000000000000600052601260045260246000fd5b0492506010810190505b6305f5e1008310613075576305f5e100838161306b577f4e487b7100000000000000000000000000000000000000000000000000000000600052601260045260246000fd5b0492506008810190505b61271083106130c05761271083816130b6577f4e487b7100000000000000000000000000000000000000000000000000000000600052601260045260246000fd5b0492506004810190505b6064831061310957606483816130ff577f4e487b7100000000000000000000000000000000000000000000000000000000600052601260045260246000fd5b0492506002810190505b600a8310613118576001810190505b80915050919050565b50805461312d906141b3565b6000825580601f1061313f575061315e565b601f01602090049060005260206000209081019061315d919061321e565b5b50565b6040518060600160405280600073ffffffffffffffffffffffffffffffffffffffff16815260200160008152602001606081525090565b8280546131a4906141b3565b90600052602060002090601f0160209004810192826131c6576000855561320d565b82601f106131df57805160ff191683800117855561320d565b8280016001018555821561320d579182015b8281111561320c5782518255916020019190600101906131f1565b5b50905061321a919061321e565b5090565b5b8082111561323757600081600090555060010161321f565b5090565b600061324e61324984614039565b614014565b90508281526020810184848401111561326657600080fd5b613271848285614171565b509392505050565b60008135905061328881614921565b92915050565b60008135905061329d81614938565b92915050565b6000813590506132b28161494f565b92915050565b6000815190506132c78161494f565b92915050565b600082601f8301126132de57600080fd5b81356132ee84826020860161323b565b91505092915050565b60008083601f84011261330957600080fd5b8235905067ffffffffffffffff81111561332257600080fd5b60208301915083600182028301111561333a57600080fd5b9250929050565b60008135905061335081614966565b92915050565b60006020828403121561336857600080fd5b600061337684828501613279565b91505092915050565b6000806040838503121561339257600080fd5b60006133a085828601613279565b92505060206133b185828601613279565b9150509250929050565b6000806000606084860312156133d057600080fd5b60006133de86828701613279565b93505060206133ef86828701613279565b925050604061340086828701613341565b9150509250925092565b6000806000806080858703121561342057600080fd5b600061342e87828801613279565b945050602061343f87828801613279565b935050604061345087828801613341565b925050606085013567ffffffffffffffff81111561346d57600080fd5b613479878288016132cd565b91505092959194509250565b6000806040838503121561349857600080fd5b60006134a685828601613279565b92505060206134b78582860161328e565b9150509250929050565b6000806000604084860312156134d657600080fd5b60006134e486828701613279565b935050602084013567ffffffffffffffff81111561350157600080fd5b61350d868287016132f7565b92509250509250925092565b6000806040838503121561352c57600080fd5b600061353a85828601613279565b925050602061354b85828601613341565b9150509250929050565b60006020828403121561356757600080fd5b6000613575848285016132a3565b91505092915050565b60006020828403121561359057600080fd5b600061359e848285016132b8565b91505092915050565b6000602082840312156135b957600080fd5b60006135c784828501613341565b91505092915050565b600080604083850312156135e357600080fd5b60006135f185828601613341565b925050602061360285828601613341565b9150509250929050565b613615816140fd565b82525050565b613624816140fd565b82525050565b6136338161410f565b82525050565b60006136448261406a565b61364e8185614080565b935061365e818560208601614180565b613667816142a3565b840191505092915050565b600061367d82614075565b613687818561409c565b9350613697818560208601614180565b6136a0816142a3565b840191505092915050565b60006136b682614075565b6136c081856140ad565b93506136d0818560208601614180565b6136d9816142a3565b840191505092915050565b60006136ef82614075565b6136f981856140be565b9350613709818560208601614180565b80840191505092915050565b6000613722601f836140ad565b915061372d826142b4565b602082019050919050565b60006137456011836140ad565b9150613750826142dd565b602082019050919050565b6000613768602d836140ad565b915061377382614306565b604082019050919050565b600061378b602b836140ad565b915061379682614355565b604082019050919050565b60006137ae6032836140ad565b91506137b9826143a4565b604082019050919050565b60006137d16026836140ad565b91506137dc826143f3565b604082019050919050565b60006137f46025836140ad565b91506137ff82614442565b604082019050919050565b60006138176018836140ad565b915061382282614491565b602082019050919050565b600061383a601c836140ad565b9150613845826144ba565b602082019050919050565b600061385d602a836140ad565b9150613868826144e3565b604082019050919050565b6000613880600a836140ad565b915061388b82614532565b602082019050919050565b60006138a36024836140ad565b91506138ae8261455b565b604082019050919050565b60006138c66019836140ad565b91506138d1826145aa565b602082019050919050565b60006138e96015836140ad565b91506138f4826145d3565b602082019050919050565b600061390c6011836140ad565b9150613917826145fc565b602082019050919050565b600061392f6029836140ad565b915061393a82614625565b604082019050919050565b6000613952602e836140ad565b915061395d82614674565b604082019050919050565b60006139756009836140ad565b9150613980826146c3565b602082019050919050565b6000613998600e836140ad565b91506139a3826146ec565b602082019050919050565b60006139bb6020836140ad565b91506139c682614715565b602082019050919050565b60006139de6020836140ad565b91506139e98261473e565b602082019050919050565b6000613a016018836140ad565b9150613a0c82614767565b602082019050919050565b6000613a246021836140ad565b9150613a2f82614790565b604082019050919050565b6000613a47600083614091565b9150613a52826147df565b600082019050919050565b6000613a6a603d836140ad565b9150613a75826147e2565b604082019050919050565b6000613a8d602c836140ad565b9150613a9882614831565b604082019050919050565b6000613ab06035836140ad565b9150613abb82614880565b604082019050919050565b6000613ad3600d836140ad565b9150613ade826148cf565b602082019050919050565b6000613af6600e836140ad565b9150613b01826148f8565b602082019050919050565b6000606083016000830151613b24600086018261360c565b506020830151613b376020860182613b5c565b5060408301518482036040860152613b4f8282613672565b9150508091505092915050565b613b6581614167565b82525050565b613b7481614167565b82525050565b6000613b8682856136e4565b9150613b9282846136e4565b91508190509392505050565b6000613ba982613a3a565b9150819050919050565b6000602082019050613bc8600083018461361b565b92915050565b6000608082019050613be3600083018761361b565b613bf0602083018661361b565b613bfd6040830185613b6b565b8181036060830152613c0f8184613639565b905095945050505050565b6000602082019050613c2f600083018461362a565b92915050565b60006020820190508181036000830152613c4f81846136ab565b905092915050565b60006020820190508181036000830152613c7081613715565b9050919050565b60006020820190508181036000830152613c9081613738565b9050919050565b60006020820190508181036000830152613cb08161375b565b9050919050565b60006020820190508181036000830152613cd08161377e565b9050919050565b60006020820190508181036000830152613cf0816137a1565b9050919050565b60006020820190508181036000830152613d10816137c4565b9050919050565b60006020820190508181036000830152613d30816137e7565b9050919050565b60006020820190508181036000830152613d508161380a565b9050919050565b60006020820190508181036000830152613d708161382d565b9050919050565b60006020820190508181036000830152613d9081613850565b9050919050565b60006020820190508181036000830152613db081613873565b9050919050565b60006020820190508181036000830152613dd081613896565b9050919050565b60006020820190508181036000830152613df0816138b9565b9050919050565b60006020820190508181036000830152613e10816138dc565b9050919050565b60006020820190508181036000830152613e30816138ff565b9050919050565b60006020820190508181036000830152613e5081613922565b9050919050565b60006020820190508181036000830152613e7081613945565b9050919050565b60006020820190508181036000830152613e9081613968565b9050919050565b60006020820190508181036000830152613eb08161398b565b9050919050565b60006020820190508181036000830152613ed0816139ae565b9050919050565b60006020820190508181036000830152613ef0816139d1565b9050919050565b60006020820190508181036000830152613f10816139f4565b9050919050565b60006020820190508181036000830152613f3081613a17565b9050919050565b60006020820190508181036000830152613f5081613a5d565b9050919050565b60006020820190508181036000830152613f7081613a80565b9050919050565b60006020820190508181036000830152613f9081613aa3565b9050919050565b60006020820190508181036000830152613fb081613ac6565b9050919050565b60006020820190508181036000830152613fd081613ae9565b9050919050565b60006020820190508181036000830152613ff18184613b0c565b905092915050565b600060208201905061400e6000830184613b6b565b92915050565b600061401e61402f565b905061402a82826141e5565b919050565b6000604051905090565b600067ffffffffffffffff82111561405457614053614274565b5b61405d826142a3565b9050602081019050919050565b600081519050919050565b600081519050919050565b600082825260208201905092915050565b600081905092915050565b600082825260208201905092915050565b600082825260208201905092915050565b600081905092915050565b60006140d482614167565b91506140df83614167565b9250828210156140f2576140f1614216565b5b828203905092915050565b600061410882614147565b9050919050565b60008115159050919050565b60007fffffffff0000000000000000000000000000000000000000000000000000000082169050919050565b600073ffffffffffffffffffffffffffffffffffffffff82169050919050565b6000819050919050565b82818337600083830152505050565b60005b8381101561419e578082015181840152602081019050614183565b838111156141ad576000848401525b50505050565b600060028204905060018216806141cb57607f821691505b602082108114156141df576141de614245565b5b50919050565b6141ee826142a3565b810181811067ffffffffffffffff8211171561420d5761420c614274565b5b80604052505050565b7f4e487b7100000000000000000000000000000000000000000000000000000000600052601160045260246000fd5b7f4e487b7100000000000000000000000000000000000000000000000000000000600052602260045260246000fd5b7f4e487b7100000000000000000000000000000000000000000000000000000000600052604160045260246000fd5b6000601f19601f8301169050919050565b7f596f752063616e2774207472616e736665722061206c6973746564204e465400600082015250565b7f4e6f7420656e6f756768206d6f6e657921000000000000000000000000000000600082015250565b7f4552433732313a2063616c6c6572206973206e6f7420746f6b656e206f776e6560008201527f72206f7220617070726f76656400000000000000000000000000000000000000602082015250565b7f455243373231456e756d657261626c653a206f776e657220696e646578206f7560008201527f74206f6620626f756e6473000000000000000000000000000000000000000000602082015250565b7f4552433732313a207472616e7366657220746f206e6f6e20455243373231526560008201527f63656976657220696d706c656d656e7465720000000000000000000000000000602082015250565b7f4f776e61626c653a206e6577206f776e657220697320746865207a65726f206160008201527f6464726573730000000000000000000000000000000000000000000000000000602082015250565b7f4552433732313a207472616e736665722066726f6d20696e636f72726563742060008201527f6f776e6572000000000000000000000000000000000000000000000000000000602082015250565b7f43616e204e6f742062757920796f7572206f776e204e46540000000000000000600082015250565b7f4552433732313a20746f6b656e20616c7265616479206d696e74656400000000600082015250565b7f41646472657373207a65726f206973206e6f7420612076616c6964206d696e7460008201527f6572206164647265737300000000000000000000000000000000000000000000602082015250565b7f4e6f74206c697374656400000000000000000000000000000000000000000000600082015250565b7f4552433732313a207472616e7366657220746f20746865207a65726f2061646460008201527f7265737300000000000000000000000000000000000000000000000000000000602082015250565b7f4552433732313a20617070726f766520746f2063616c6c657200000000000000600082015250565b7f596f7520617265206e6f7420746865206f776e65720000000000000000000000600082015250565b7f496e76616c6964206e6577207072696365000000000000000000000000000000600082015250565b7f4552433732313a2061646472657373207a65726f206973206e6f74206120766160008201527f6c6964206f776e65720000000000000000000000000000000000000000000000602082015250565b7f45524337323155524953746f726167653a2055524920736574206f66206e6f6e60008201527f6578697374656e7420746f6b656e000000000000000000000000000000000000602082015250565b7f456d707479207572690000000000000000000000000000000000000000000000600082015250565b7f5061796d656e74206661696c6564000000000000000000000000000000000000600082015250565b7f4552433732313a206d696e7420746f20746865207a65726f2061646472657373600082015250565b7f4f776e61626c653a2063616c6c6572206973206e6f7420746865206f776e6572600082015250565b7f4552433732313a20696e76616c696420746f6b656e2049440000000000000000600082015250565b7f4552433732313a20617070726f76616c20746f2063757272656e74206f776e6560008201527f7200000000000000000000000000000000000000000000000000000000000000602082015250565b50565b7f4552433732313a20617070726f76652063616c6c6572206973206e6f7420746f60008201527f6b656e206f776e6572206f7220617070726f76656420666f7220616c6c000000602082015250565b7f455243373231456e756d657261626c653a20676c6f62616c20696e646578206f60008201527f7574206f6620626f756e64730000000000000000000000000000000000000000602082015250565b7f455243373231456e756d657261626c653a20636f6e736563757469766520747260008201527f616e7366657273206e6f7420737570706f727465640000000000000000000000602082015250565b7f496e76616c696420707269636500000000000000000000000000000000000000600082015250565b7f416c7265616479206c6973746564000000000000000000000000000000000000600082015250565b61492a816140fd565b811461493557600080fd5b50565b6149418161410f565b811461494c57600080fd5b50565b6149588161411b565b811461496357600080fd5b50565b61496f81614167565b811461497a57600080fd5b5056fea2646970667358221220da0cef236002888d04a3cdd56ef688de8270b5bce1d28f7bdae69853d39a242b64736f6c63430008020033",
  "linkReferences": {},
  "deployedLinkReferences": {}
}